{
  "contractName": "Casino_origin",
  "abi": [
    {
      "inputs": [
        {
          "internalType": "uint256",
          "name": "minumBet_",
          "type": "uint256"
        }
      ],
      "stateMutability": "nonpayable",
      "type": "constructor"
    },
    {
      "inputs": [],
      "name": "owner",
      "outputs": [
        {
          "internalType": "address",
          "name": "",
          "type": "address"
        }
      ],
      "stateMutability": "view",
      "type": "function"
    },
    {
      "inputs": [
        {
          "internalType": "uint256",
          "name": "",
          "type": "uint256"
        }
      ],
      "name": "players",
      "outputs": [
        {
          "internalType": "address",
          "name": "",
          "type": "address"
        }
      ],
      "stateMutability": "view",
      "type": "function"
    },
    {
      "inputs": [
        {
          "internalType": "uint256",
          "name": "number",
          "type": "uint256"
        }
      ],
      "name": "bet",
      "outputs": [],
      "stateMutability": "payable",
      "type": "function"
    },
    {
      "inputs": [
        {
          "internalType": "uint256",
          "name": "win_number",
          "type": "uint256"
        }
      ],
      "name": "distributePrice",
      "outputs": [],
      "stateMutability": "nonpayable",
      "type": "function"
    },
    {
      "inputs": [
        {
          "internalType": "address",
          "name": "user",
          "type": "address"
        }
      ],
      "name": "checkPlayerExist",
      "outputs": [
        {
          "internalType": "bool",
          "name": "",
          "type": "bool"
        }
      ],
      "stateMutability": "view",
      "type": "function"
    },
    {
      "inputs": [],
      "name": "resetData",
      "outputs": [],
      "stateMutability": "nonpayable",
      "type": "function"
    },
    {
      "inputs": [],
      "name": "kill",
      "outputs": [],
      "stateMutability": "nonpayable",
      "type": "function"
    }
  ],
  "bytecode": "0x6080604052606460065534801561001557600080fd5b50604051610e8e380380610e8e833981810160405281019061003791906100c8565b336000806101000a81548173ffffffffffffffffffffffffffffffffffffffff021916908373ffffffffffffffffffffffffffffffffffffffff1602179055506000811461008757806003819055505b506100f5565b600080fd5b6000819050919050565b6100a581610092565b81146100b057600080fd5b50565b6000815190506100c28161009c565b92915050565b6000602082840312156100de576100dd61008d565b5b60006100ec848285016100b3565b91505092915050565b610d8a806101046000396000f3fe6080604052600436106100705760003560e01c80637365870b1161004e5780637365870b146100e05780638da5cb5b146100fc578063d492206a14610127578063f71d96cb1461015057610070565b806341c0e1b514610075578063478c4e0e1461008c57806349a53dd2146100a3575b600080fd5b34801561008157600080fd5b5061008a61018d565b005b34801561009857600080fd5b506100a161021b565b005b3480156100af57600080fd5b506100ca60048036038101906100c5919061095f565b61022d565b6040516100d791906109a7565b60405180910390f35b6100fa60048036038101906100f591906109f8565b6102db565b005b34801561010857600080fd5b5061011161052a565b60405161011e9190610a34565b60405180910390f35b34801561013357600080fd5b5061014e600480360381019061014991906109f8565b61054e565b005b34801561015c57600080fd5b50610177600480360381019061017291906109f8565b610805565b6040516101849190610a34565b60405180910390f35b60008054906101000a900473ffffffffffffffffffffffffffffffffffffffff1673ffffffffffffffffffffffffffffffffffffffff163373ffffffffffffffffffffffffffffffffffffffff16036102195760008054906101000a900473ffffffffffffffffffffffffffffffffffffffff1673ffffffffffffffffffffffffffffffffffffffff16ff5b565b60006004819055506000600581905550565b600080600090505b6002805490508110156102d0578273ffffffffffffffffffffffffffffffffffffffff166002828154811061026d5761026c610a4f565b5b9060005260206000200160009054906101000a900473ffffffffffffffffffffffffffffffffffffffff1673ffffffffffffffffffffffffffffffffffffffff16036102bd5760019150506102d6565b80806102c890610aad565b915050610235565b50600090505b919050565b60008054906101000a900473ffffffffffffffffffffffffffffffffffffffff1673ffffffffffffffffffffffffffffffffffffffff163373ffffffffffffffffffffffffffffffffffffffff161461033357600080fd5b61035c60008054906101000a900473ffffffffffffffffffffffffffffffffffffffff1661022d565b1561036657600080fd5b600181101580156103785750600a8111155b61038157600080fd5b600354341161038f57600080fd5b34600160008060009054906101000a900473ffffffffffffffffffffffffffffffffffffffff1673ffffffffffffffffffffffffffffffffffffffff1673ffffffffffffffffffffffffffffffffffffffff1681526020019081526020016000206001018190555080600160008060009054906101000a900473ffffffffffffffffffffffffffffffffffffffff1673ffffffffffffffffffffffffffffffffffffffff1673ffffffffffffffffffffffffffffffffffffffff168152602001908152602001600020600001819055506005600081548092919061047290610aad565b9190505550600260008054906101000a900473ffffffffffffffffffffffffffffffffffffffff169080600181540180825580915050600190039060005260206000200160009091909190916101000a81548173ffffffffffffffffffffffffffffffffffffffff021916908373ffffffffffffffffffffffffffffffffffffffff160217905550346004600082825461050c9190610af5565b925050819055506006546005541061052757610526610844565b5b50565b60008054906101000a900473ffffffffffffffffffffffffffffffffffffffff1681565b60008054906101000a900473ffffffffffffffffffffffffffffffffffffffff1673ffffffffffffffffffffffffffffffffffffffff163373ffffffffffffffffffffffffffffffffffffffff16146105a657600080fd5b6105ae61089b565b6000805b60028054905081101561070b576000600282815481106105d5576105d4610a4f565b5b9060005260206000200160009054906101000a900473ffffffffffffffffffffffffffffffffffffffff16905084600160008373ffffffffffffffffffffffffffffffffffffffff1673ffffffffffffffffffffffffffffffffffffffff16815260200190815260200160002060000154036106a5578084846064811061065f5761065e610a4f565b5b602002019073ffffffffffffffffffffffffffffffffffffffff16908173ffffffffffffffffffffffffffffffffffffffff168152505082806106a190610aad565b9350505b600160008273ffffffffffffffffffffffffffffffffffffffff1673ffffffffffffffffffffffffffffffffffffffff1681526020019081526020016000206000808201600090556001820160009055505050808061070390610aad565b9150506105b2565b506002600061071a91906108be565b6000606460045461072b9190610b7a565b905060005b60648110156107f657600073ffffffffffffffffffffffffffffffffffffffff1684826064811061076457610763610a4f565b5b602002015173ffffffffffffffffffffffffffffffffffffffff16146107e35783816064811061079757610796610a4f565b5b602002015173ffffffffffffffffffffffffffffffffffffffff166108fc839081150290604051600060405180830381858888f193505050501580156107e1573d6000803e3d6000fd5b505b80806107ee90610aad565b915050610730565b506107ff61021b565b50505050565b6002818154811061081557600080fd5b906000526020600020016000915054906101000a900473ffffffffffffffffffffffffffffffffffffffff1681565b60006001600a4442600260405160200161086093929190610cea565b6040516020818303038152906040528051906020012060001c6108839190610d23565b61088d9190610af5565b90506108988161054e565b50565b60405180610c800160405280606490602082028036833780820191505090505090565b50805460008255906000526020600020908101906108dc91906108df565b50565b5b808211156108f85760008160009055506001016108e0565b5090565b600080fd5b600073ffffffffffffffffffffffffffffffffffffffff82169050919050565b600061092c82610901565b9050919050565b61093c81610921565b811461094757600080fd5b50565b60008135905061095981610933565b92915050565b600060208284031215610975576109746108fc565b5b60006109838482850161094a565b91505092915050565b60008115159050919050565b6109a18161098c565b82525050565b60006020820190506109bc6000830184610998565b92915050565b6000819050919050565b6109d5816109c2565b81146109e057600080fd5b50565b6000813590506109f2816109cc565b92915050565b600060208284031215610a0e57610a0d6108fc565b5b6000610a1c848285016109e3565b91505092915050565b610a2e81610921565b82525050565b6000602082019050610a496000830184610a25565b92915050565b7f4e487b7100000000000000000000000000000000000000000000000000000000600052603260045260246000fd5b7f4e487b7100000000000000000000000000000000000000000000000000000000600052601160045260246000fd5b6000610ab8826109c2565b91507fffffffffffffffffffffffffffffffffffffffffffffffffffffffffffffffff8203610aea57610ae9610a7e565b5b600182019050919050565b6000610b00826109c2565b9150610b0b836109c2565b9250827fffffffffffffffffffffffffffffffffffffffffffffffffffffffffffffffff03821115610b4057610b3f610a7e565b5b828201905092915050565b7f4e487b7100000000000000000000000000000000000000000000000000000000600052601260045260246000fd5b6000610b85826109c2565b9150610b90836109c2565b925082610ba057610b9f610b4b565b5b828204905092915050565b6000819050919050565b610bc6610bc1826109c2565b610bab565b82525050565b600081549050919050565b600081905092915050565b60008190508160005260206000209050919050565b610c0081610921565b82525050565b6000610c128383610bf7565b60208301905092915050565b60008160001c9050919050565b600073ffffffffffffffffffffffffffffffffffffffff82169050919050565b6000610c5e610c5983610c1e565b610c2b565b9050919050565b6000610c718254610c4b565b9050919050565b6000600182019050919050565b6000610c9082610bcc565b610c9a8185610bd7565b9350610ca583610be2565b8060005b83811015610cdd57610cba82610c65565b610cc48882610c06565b9750610ccf83610c78565b925050600181019050610ca9565b5085935050505092915050565b6000610cf68286610bb5565b602082019150610d068285610bb5565b602082019150610d168284610c85565b9150819050949350505050565b6000610d2e826109c2565b9150610d39836109c2565b925082610d4957610d48610b4b565b5b82820690509291505056fea264697066735822122082e0cfef2e9195ad5f141bffadac7f4751ce7e23458e034502931c05436e354064736f6c634300080f0033",
  "immutableReferences": {},
  "source": "// SPDX-License-Identifier: MIT\r\n\r\npragma solidity ^0.8.9;\r\n\r\ncontract Casino_origin {\r\n    address public owner;\r\n\r\n    // mapping(uint32 => uint256) private player;\r\n    struct player {\r\n        uint256 numberselected;\r\n        uint256 amountBet;\r\n    }\r\n\r\n    mapping(address => player) player_info;\r\n    address[] public players;  \r\n    uint256 minumBet;\r\n    uint256 totalBet;\r\n    uint256 numberofBets;\r\n    uint256 MaxnumberofBets = 100;\r\n\r\n\r\n    constructor(uint256 minumBet_) {\r\n        owner = msg.sender;\r\n        if (minumBet_ != 0)   minumBet = minumBet_;\r\n    }\r\n\r\n    function bet(uint256 number) public payable{\r\n        require(msg.sender == owner);\r\n        require(!checkPlayerExist(owner));\r\n        require(number >=1 && number <= 10);\r\n        require(msg.value > minumBet);\r\n        player_info[owner].amountBet = msg.value;\r\n        player_info[owner].numberselected = number;\r\n        numberofBets++;\r\n        players.push(owner);\r\n        totalBet += msg.value;\r\n        if (numberofBets >= MaxnumberofBets) generateNumberWiner();\r\n    }\r\n\r\n    function generateNumberWiner() private {\r\n        uint256 random_number =  uint256(keccak256(abi.encodePacked(block.difficulty, block.timestamp, players))) % 10 +1;\r\n        distributePrice(random_number);\r\n    }\r\n\r\n    function distributePrice(uint win_number) public {\r\n        \r\n        require(msg.sender == owner); \r\n        address payable [100]  memory winners;\r\n        uint count= 0;\r\n\r\n        for(uint i=0; i < players.length; i++) {\r\n            address user = players[i];\r\n            if (player_info[user].numberselected == win_number) {\r\n                winners[count] = payable(user);\r\n                count++;\r\n            }\r\n            delete player_info[user];\r\n        }\r\n        delete players;\r\n        uint winnerEtherAmount = totalBet / winners.length;\r\n        for(uint i = 0 ; i < winners.length; i++) {\r\n            if (winners[i] != address(0))\r\n                winners[i].transfer(winnerEtherAmount);\r\n        }\r\n        resetData();\r\n    }\r\n\r\n    function checkPlayerExist(address user) public view returns(bool) {\r\n        for(uint i=0; i < players.length; i++) \r\n            if (players[i] == user)\r\n                return true;\r\n        return false;\r\n    }\r\n\r\n    function resetData() public {\r\n        // players.length = 0;\r\n        totalBet = 0;\r\n        numberofBets = 0;\r\n    }\r\n\r\n    function kill() public {\r\n        if (msg.sender == owner)\r\n        selfdestruct(payable(owner));\r\n    }\r\n}\r\n\r\n",
  "sourcePath": "D:\\learning solidity\\Solidity\\truffle\\blockchain\\contracts\\contracts\\casino_origin.sol",
  "compiler": {
    "name": "solc",
    "version": "0.8.15+commit.e14f2714.Emscripten.clang"
  },
  "schemaVersion": "3.4.9",
  "updatedAt": "2022-08-28T04:46:39.447Z",
  "devdoc": {
    "kind": "dev",
    "methods": {},
    "version": 1
  },
  "userdoc": {
    "kind": "user",
    "methods": {},
    "version": 1
  }
}