{
  "contractName": "Casino",
  "abi": [
    {
      "inputs": [],
      "stateMutability": "nonpayable",
      "type": "constructor"
    },
    {
      "inputs": [],
      "name": "count",
      "outputs": [
        {
          "internalType": "uint256",
          "name": "",
          "type": "uint256"
        }
      ],
      "stateMutability": "view",
      "type": "function"
    },
    {
      "inputs": [
        {
          "internalType": "string",
          "name": "name_",
          "type": "string"
        },
        {
          "internalType": "string",
          "name": "phone_",
          "type": "string"
        }
      ],
      "name": "createContact",
      "outputs": [],
      "stateMutability": "nonpayable",
      "type": "function"
    }
  ],
  "bytecode": "0x6080604052600080553480156200001557600080fd5b50620000926040518060400160405280600781526020017f52657968616e65000000000000000000000000000000000000000000000000008152506040518060400160405280600c81526020017f30393135323335343338323100000000000000000000000000000000000000008152506200009860201b60201c565b6200047c565b600080815480929190600101919050555060405180606001604052806000548152602001838152602001828152506001600080548152602001908152602001600020600082015181600001556020820151816001019081620000fb919062000395565b50604082015181600201908162000113919062000395565b509050505050565b600081519050919050565b7f4e487b7100000000000000000000000000000000000000000000000000000000600052604160045260246000fd5b7f4e487b7100000000000000000000000000000000000000000000000000000000600052602260045260246000fd5b600060028204905060018216806200019d57607f821691505b602082108103620001b357620001b262000155565b5b50919050565b60008190508160005260206000209050919050565b60006020601f8301049050919050565b600082821b905092915050565b6000600883026200021d7fffffffffffffffffffffffffffffffffffffffffffffffffffffffffffffffff82620001de565b620002298683620001de565b95508019841693508086168417925050509392505050565b6000819050919050565b6000819050919050565b600062000276620002706200026a8462000241565b6200024b565b62000241565b9050919050565b6000819050919050565b620002928362000255565b620002aa620002a1826200027d565b848454620001eb565b825550505050565b600090565b620002c1620002b2565b620002ce81848462000287565b505050565b5b81811015620002f657620002ea600082620002b7565b600181019050620002d4565b5050565b601f82111562000345576200030f81620001b9565b6200031a84620001ce565b810160208510156200032a578190505b620003426200033985620001ce565b830182620002d3565b50505b505050565b600082821c905092915050565b60006200036a600019846008026200034a565b1980831691505092915050565b600062000385838362000357565b9150826002028217905092915050565b620003a0826200011b565b67ffffffffffffffff811115620003bc57620003bb62000126565b5b620003c8825462000184565b620003d5828285620002fa565b600060209050601f8311600181146200040d5760008415620003f8578287015190505b62000404858262000377565b86555062000474565b601f1984166200041d86620001b9565b60005b82811015620004475784890151825560018201915060208501945060208101905062000420565b8683101562000467578489015162000463601f89168262000357565b8355505b6001600288020188555050505b505050505050565b61061f806200048c6000396000f3fe608060405234801561001057600080fd5b50600436106100365760003560e01c806306661abd1461003b5780633dce492014610059575b600080fd5b610043610075565b6040516100509190610113565b60405180910390f35b610073600480360381019061006e9190610288565b61007b565b005b60005481565b6000808154809291906001019190505550604051806060016040528060005481526020018381526020018281525060016000805481526020019081526020016000206000820151816000015560208201518160010190816100dc9190610517565b5060408201518160020190816100f29190610517565b509050505050565b6000819050919050565b61010d816100fa565b82525050565b60006020820190506101286000830184610104565b92915050565b6000604051905090565b600080fd5b600080fd5b600080fd5b600080fd5b6000601f19601f8301169050919050565b7f4e487b7100000000000000000000000000000000000000000000000000000000600052604160045260246000fd5b6101958261014c565b810181811067ffffffffffffffff821117156101b4576101b361015d565b5b80604052505050565b60006101c761012e565b90506101d3828261018c565b919050565b600067ffffffffffffffff8211156101f3576101f261015d565b5b6101fc8261014c565b9050602081019050919050565b82818337600083830152505050565b600061022b610226846101d8565b6101bd565b90508281526020810184848401111561024757610246610147565b5b610252848285610209565b509392505050565b600082601f83011261026f5761026e610142565b5b813561027f848260208601610218565b91505092915050565b6000806040838503121561029f5761029e610138565b5b600083013567ffffffffffffffff8111156102bd576102bc61013d565b5b6102c98582860161025a565b925050602083013567ffffffffffffffff8111156102ea576102e961013d565b5b6102f68582860161025a565b9150509250929050565b600081519050919050565b7f4e487b7100000000000000000000000000000000000000000000000000000000600052602260045260246000fd5b6000600282049050600182168061035257607f821691505b6020821081036103655761036461030b565b5b50919050565b60008190508160005260206000209050919050565b60006020601f8301049050919050565b600082821b905092915050565b6000600883026103cd7fffffffffffffffffffffffffffffffffffffffffffffffffffffffffffffffff82610390565b6103d78683610390565b95508019841693508086168417925050509392505050565b6000819050919050565b600061041461040f61040a846100fa565b6103ef565b6100fa565b9050919050565b6000819050919050565b61042e836103f9565b61044261043a8261041b565b84845461039d565b825550505050565b600090565b61045761044a565b610462818484610425565b505050565b5b818110156104865761047b60008261044f565b600181019050610468565b5050565b601f8211156104cb5761049c8161036b565b6104a584610380565b810160208510156104b4578190505b6104c86104c085610380565b830182610467565b50505b505050565b600082821c905092915050565b60006104ee600019846008026104d0565b1980831691505092915050565b600061050783836104dd565b9150826002028217905092915050565b61052082610300565b67ffffffffffffffff8111156105395761053861015d565b5b610543825461033a565b61054e82828561048a565b600060209050601f831160018114610581576000841561056f578287015190505b61057985826104fb565b8655506105e1565b601f19841661058f8661036b565b60005b828110156105b757848901518255600182019150602085019450602081019050610592565b868310156105d457848901516105d0601f8916826104dd565b8355505b6001600288020188555050505b50505050505056fea2646970667358221220ea1d13db8e3bd234780f951bacf2e6685f323ce3266fd483181c6f528d8184c464736f6c634300080f0033",
  "immutableReferences": {},
  "source": "// SPDX-License-Identifier: MIT\r\n\r\npragma solidity ^0.8.9;\r\n\r\ncontract Casino {\r\n    // address public owner;\r\n    uint public count = 0;\r\n\r\n    struct Contact {\r\n        uint id;\r\n        string name;\r\n        string phone;\r\n    }\r\n\r\n    mapping(uint => Contact) contacts;\r\n\r\n    constructor() public {\r\n        \r\n        // owner = msg.sender;        \r\n        createContact(\"Reyhane\", \"091523543821\");\r\n        \r\n    }\r\n    // modifier onlyOwner() {\r\n    //     require(msg.sender == owner);\r\n    //     _;\r\n    // }\r\n\r\n    function createContact(string memory name_, string memory phone_) public {\r\n        unchecked {\r\n            count++;\r\n        }\r\n        contacts[count]=Contact(count,name_,phone_);\r\n        \r\n    }\r\n\r\n    // function getContactphone(uint id)  public view returns(string memory){\r\n    //     return contacts[id].phone;\r\n    // }\r\n\r\n    // function getContactName(uint id) public view returns(string memory) {\r\n    //     return  contacts[id].name;\r\n    // }\r\n\r\n    // function setOwner() public  {\r\n    //     owner = msg.sender;\r\n    // }\r\n\r\n    // function get_owner() public view returns(address) {\r\n    //     require(msg.sender == owner);\r\n    //     return owner;\r\n    // }\r\n\r\n    // function add_Owner () public returns(uint) {\r\n    //     return count++;\r\n    // }\r\n\r\n\r\n\r\n\r\n}",
  "sourcePath": "D:\\learning solidity\\Solidity\\truffle\\blockchain\\contracts\\contracts\\mycasino.sol",
  "compiler": {
    "name": "solc",
    "version": "0.8.15+commit.e14f2714.Emscripten.clang"
  },
  "schemaVersion": "3.4.9",
  "updatedAt": "2022-08-28T04:46:39.451Z",
  "devdoc": {
    "kind": "dev",
    "methods": {},
    "version": 1
  },
  "userdoc": {
    "kind": "user",
    "methods": {},
    "version": 1
  }
}