{
  "contractName": "Contacts",
  "abi": [
    {
      "inputs": [],
      "stateMutability": "nonpayable",
      "type": "constructor"
    },
    {
      "inputs": [
        {
          "internalType": "uint256",
          "name": "",
          "type": "uint256"
        }
      ],
      "name": "contacts",
      "outputs": [
        {
          "internalType": "uint256",
          "name": "id",
          "type": "uint256"
        },
        {
          "internalType": "string",
          "name": "name",
          "type": "string"
        },
        {
          "internalType": "string",
          "name": "phone",
          "type": "string"
        }
      ],
      "stateMutability": "view",
      "type": "function",
      "constant": true
    },
    {
      "inputs": [],
      "name": "count",
      "outputs": [
        {
          "internalType": "uint256",
          "name": "",
          "type": "uint256"
        }
      ],
      "stateMutability": "view",
      "type": "function",
      "constant": true
    },
    {
      "inputs": [
        {
          "internalType": "string",
          "name": "_name",
          "type": "string"
        },
        {
          "internalType": "string",
          "name": "_phone",
          "type": "string"
        }
      ],
      "name": "createContact",
      "outputs": [
        {
          "internalType": "uint256",
          "name": "",
          "type": "uint256"
        }
      ],
      "stateMutability": "nonpayable",
      "type": "function"
    },
    {
      "inputs": [
        {
          "internalType": "uint256",
          "name": "index",
          "type": "uint256"
        }
      ],
      "name": "delContact",
      "outputs": [],
      "stateMutability": "nonpayable",
      "type": "function"
    },
    {
      "inputs": [],
      "name": "delList",
      "outputs": [],
      "stateMutability": "nonpayable",
      "type": "function"
    },
    {
      "inputs": [
        {
          "internalType": "address",
          "name": "new_owner",
          "type": "address"
        },
        {
          "internalType": "uint256",
          "name": "gasValue",
          "type": "uint256"
        }
      ],
      "name": "change_owner",
      "outputs": [],
      "stateMutability": "nonpayable",
      "type": "function"
    }
  ],
  "bytecode": "0x608060405260006001553480156200001657600080fd5b50336000806101000a81548173ffffffffffffffffffffffffffffffffffffffff021916908373ffffffffffffffffffffffffffffffffffffffff160217905550620000d36040518060400160405280600881526020017f52657968616e65680000000000000000000000000000000000000000000000008152506040518060400160405280600b81526020017f3039313633343532333832000000000000000000000000000000000000000000815250620000da60201b60201c565b50620007fc565b60008060009054906101000a900473ffffffffffffffffffffffffffffffffffffffff1673ffffffffffffffffffffffffffffffffffffffff163373ffffffffffffffffffffffffffffffffffffffff16146200013657600080fd5b6000805b60015481116200023e578460405160200162000157919062000369565b60405160208183030381529060405280519060200120600260008381526020019081526020016000206001016040516020016200019591906200048a565b604051602081830303815290604052805190602001201480156200021d575083604051602001620001c7919062000369565b60405160208183030381529060405280519060200120600260008381526020019081526020016000206002016040516020016200020591906200048a565b60405160208183030381529060405280519060200120145b156200022857600191505b80806200023590620004dc565b9150506200013a565b5080620002da57600160008154809291906200025a90620004dc565b91905055506040518060600160405280600154815260200185815260200184815250600260006001548152602001908152602001600020600082015181600001556020820151816001019081620002b2919062000715565b506040820151816002019081620002ca919062000715565b50905050600154915050620002e0565b60009150505b92915050565b600081519050919050565b600081905092915050565b60005b838110156200031c578082015181840152602081019050620002ff565b838111156200032c576000848401525b50505050565b60006200033f82620002e6565b6200034b8185620002f1565b93506200035d818560208601620002fc565b80840191505092915050565b600062000377828462000332565b915081905092915050565b7f4e487b7100000000000000000000000000000000000000000000000000000000600052602260045260246000fd5b60006002820490506001821680620003ca57607f821691505b602082108103620003e057620003df62000382565b5b50919050565b60008190508160005260206000209050919050565b600081546200040a81620003b1565b620004168186620002f1565b945060018216600081146200043457600181146200044a5762000481565b60ff198316865281151582028601935062000481565b6200045585620003e6565b60005b83811015620004795781548189015260018201915060208101905062000458565b838801955050505b50505092915050565b6000620004988284620003fb565b915081905092915050565b7f4e487b7100000000000000000000000000000000000000000000000000000000600052601160045260246000fd5b6000819050919050565b6000620004e982620004d2565b91507fffffffffffffffffffffffffffffffffffffffffffffffffffffffffffffffff82036200051e576200051d620004a3565b5b600182019050919050565b7f4e487b7100000000000000000000000000000000000000000000000000000000600052604160045260246000fd5b60006020601f8301049050919050565b600082821b905092915050565b600060088302620005a77fffffffffffffffffffffffffffffffffffffffffffffffffffffffffffffffff8262000568565b620005b3868362000568565b95508019841693508086168417925050509392505050565b6000819050919050565b6000620005f6620005f0620005ea84620004d2565b620005cb565b620004d2565b9050919050565b6000819050919050565b6200061283620005d5565b6200062a6200062182620005fd565b84845462000575565b825550505050565b600090565b6200064162000632565b6200064e81848462000607565b505050565b5b8181101562000676576200066a60008262000637565b60018101905062000654565b5050565b601f821115620006c5576200068f81620003e6565b6200069a8462000558565b81016020851015620006aa578190505b620006c2620006b98562000558565b83018262000653565b50505b505050565b600082821c905092915050565b6000620006ea60001984600802620006ca565b1980831691505092915050565b6000620007058383620006d7565b9150826002028217905092915050565b6200072082620002e6565b67ffffffffffffffff8111156200073c576200073b62000529565b5b620007488254620003b1565b620007558282856200067a565b600060209050601f8311600181146200078d576000841562000778578287015190505b620007848582620006f7565b865550620007f4565b601f1984166200079d86620003e6565b60005b82811015620007c757848901518255600182019150602085019450602081019050620007a0565b86831015620007e75784890151620007e3601f891682620006d7565b8355505b6001600288020188555050505b505050505050565b610f00806200080c6000396000f3fe608060405234801561001057600080fd5b50600436106100625760003560e01c806306661abd146100675780632d8967ca146100855780633dce4920146100a15780639d516f06146100d1578063cc8d4d7a146100ed578063e0f478cb146100f7575b600080fd5b61006f610129565b60405161007c91906106d7565b60405180910390f35b61009f600480360381019061009a9190610790565b61012f565b005b6100bb60048036038101906100b69190610916565b6101cb565b6040516100c891906106d7565b60405180910390f35b6100eb60048036038101906100e6919061098e565b6103c0565b005b6100f5610463565b005b610111600480360381019061010c919061098e565b610527565b60405161012093929190610a43565b60405180910390f35b60015481565b60008054906101000a900473ffffffffffffffffffffffffffffffffffffffff1673ffffffffffffffffffffffffffffffffffffffff163373ffffffffffffffffffffffffffffffffffffffff161461018757600080fd5b816000806101000a81548173ffffffffffffffffffffffffffffffffffffffff021916908373ffffffffffffffffffffffffffffffffffffffff1602179055505050565b60008060009054906101000a900473ffffffffffffffffffffffffffffffffffffffff1673ffffffffffffffffffffffffffffffffffffffff163373ffffffffffffffffffffffffffffffffffffffff161461022657600080fd5b6000805b600154811161032057846040516020016102449190610ac4565b60405160208183030381529060405280519060200120600260008381526020019081526020016000206001016040516020016102809190610bd3565b604051602081830303815290604052805190602001201480156103035750836040516020016102af9190610ac4565b60405160208183030381529060405280519060200120600260008381526020019081526020016000206002016040516020016102eb9190610bd3565b60405160208183030381529060405280519060200120145b1561030d57600191505b808061031890610c19565b91505061022a565b50806103b4576001600081548092919061033990610c19565b9190505550604051806060016040528060015481526020018581526020018481525060026000600154815260200190815260200160002060008201518160000155602082015181600101908161038f9190610df8565b5060408201518160020190816103a59190610df8565b509050506001549150506103ba565b60009150505b92915050565b60008054906101000a900473ffffffffffffffffffffffffffffffffffffffff1673ffffffffffffffffffffffffffffffffffffffff163373ffffffffffffffffffffffffffffffffffffffff161461041857600080fd5b6001548111610460576002600082815260200190815260200160002060008082016000905560018201600061044d9190610661565b60028201600061045d9190610661565b50505b50565b60008054906101000a900473ffffffffffffffffffffffffffffffffffffffff1673ffffffffffffffffffffffffffffffffffffffff163373ffffffffffffffffffffffffffffffffffffffff16146104bb57600080fd5b6000600190505b600154811161051c57600260008281526020019081526020016000206000808201600090556001820160006104f79190610661565b6002820160006105079190610661565b5050808061051490610c19565b9150506104c2565b506000600181905550565b600260205280600052604060002060009150905080600001549080600101805461055090610b0a565b80601f016020809104026020016040519081016040528092919081815260200182805461057c90610b0a565b80156105c95780601f1061059e576101008083540402835291602001916105c9565b820191906000526020600020905b8154815290600101906020018083116105ac57829003601f168201915b5050505050908060020180546105de90610b0a565b80601f016020809104026020016040519081016040528092919081815260200182805461060a90610b0a565b80156106575780601f1061062c57610100808354040283529160200191610657565b820191906000526020600020905b81548152906001019060200180831161063a57829003601f168201915b5050505050905083565b50805461066d90610b0a565b6000825580601f1061067f575061069e565b601f01602090049060005260206000209081019061069d91906106a1565b5b50565b5b808211156106ba5760008160009055506001016106a2565b5090565b6000819050919050565b6106d1816106be565b82525050565b60006020820190506106ec60008301846106c8565b92915050565b6000604051905090565b600080fd5b600080fd5b600073ffffffffffffffffffffffffffffffffffffffff82169050919050565b600061073182610706565b9050919050565b61074181610726565b811461074c57600080fd5b50565b60008135905061075e81610738565b92915050565b61076d816106be565b811461077857600080fd5b50565b60008135905061078a81610764565b92915050565b600080604083850312156107a7576107a66106fc565b5b60006107b58582860161074f565b92505060206107c68582860161077b565b9150509250929050565b600080fd5b600080fd5b6000601f19601f8301169050919050565b7f4e487b7100000000000000000000000000000000000000000000000000000000600052604160045260246000fd5b610823826107da565b810181811067ffffffffffffffff82111715610842576108416107eb565b5b80604052505050565b60006108556106f2565b9050610861828261081a565b919050565b600067ffffffffffffffff821115610881576108806107eb565b5b61088a826107da565b9050602081019050919050565b82818337600083830152505050565b60006108b96108b484610866565b61084b565b9050828152602081018484840111156108d5576108d46107d5565b5b6108e0848285610897565b509392505050565b600082601f8301126108fd576108fc6107d0565b5b813561090d8482602086016108a6565b91505092915050565b6000806040838503121561092d5761092c6106fc565b5b600083013567ffffffffffffffff81111561094b5761094a610701565b5b610957858286016108e8565b925050602083013567ffffffffffffffff81111561097857610977610701565b5b610984858286016108e8565b9150509250929050565b6000602082840312156109a4576109a36106fc565b5b60006109b28482850161077b565b91505092915050565b600081519050919050565b600082825260208201905092915050565b60005b838110156109f55780820151818401526020810190506109da565b83811115610a04576000848401525b50505050565b6000610a15826109bb565b610a1f81856109c6565b9350610a2f8185602086016109d7565b610a38816107da565b840191505092915050565b6000606082019050610a5860008301866106c8565b8181036020830152610a6a8185610a0a565b90508181036040830152610a7e8184610a0a565b9050949350505050565b600081905092915050565b6000610a9e826109bb565b610aa88185610a88565b9350610ab88185602086016109d7565b80840191505092915050565b6000610ad08284610a93565b915081905092915050565b7f4e487b7100000000000000000000000000000000000000000000000000000000600052602260045260246000fd5b60006002820490506001821680610b2257607f821691505b602082108103610b3557610b34610adb565b5b50919050565b60008190508160005260206000209050919050565b60008154610b5d81610b0a565b610b678186610a88565b94506001821660008114610b825760018114610b9757610bca565b60ff1983168652811515820286019350610bca565b610ba085610b3b565b60005b83811015610bc257815481890152600182019150602081019050610ba3565b838801955050505b50505092915050565b6000610bdf8284610b50565b915081905092915050565b7f4e487b7100000000000000000000000000000000000000000000000000000000600052601160045260246000fd5b6000610c24826106be565b91507fffffffffffffffffffffffffffffffffffffffffffffffffffffffffffffffff8203610c5657610c55610bea565b5b600182019050919050565b60006020601f8301049050919050565b600082821b905092915050565b600060088302610cae7fffffffffffffffffffffffffffffffffffffffffffffffffffffffffffffffff82610c71565b610cb88683610c71565b95508019841693508086168417925050509392505050565b6000819050919050565b6000610cf5610cf0610ceb846106be565b610cd0565b6106be565b9050919050565b6000819050919050565b610d0f83610cda565b610d23610d1b82610cfc565b848454610c7e565b825550505050565b600090565b610d38610d2b565b610d43818484610d06565b505050565b5b81811015610d6757610d5c600082610d30565b600181019050610d49565b5050565b601f821115610dac57610d7d81610b3b565b610d8684610c61565b81016020851015610d95578190505b610da9610da185610c61565b830182610d48565b50505b505050565b600082821c905092915050565b6000610dcf60001984600802610db1565b1980831691505092915050565b6000610de88383610dbe565b9150826002028217905092915050565b610e01826109bb565b67ffffffffffffffff811115610e1a57610e196107eb565b5b610e248254610b0a565b610e2f828285610d6b565b600060209050601f831160018114610e625760008415610e50578287015190505b610e5a8582610ddc565b865550610ec2565b601f198416610e7086610b3b565b60005b82811015610e9857848901518255600182019150602085019450602081019050610e73565b86831015610eb55784890151610eb1601f891682610dbe565b8355505b6001600288020188555050505b50505050505056fea2646970667358221220312dff861960ba9aa85914e52fd8ba33e46505ce91226d9fdd8e8066f5a8c2ae64736f6c634300080f0033",
  "immutableReferences": {},
  "source": "// SPDX-License-Identifier: MIT\r\n\r\npragma solidity >=0.4.22 <0.9.0;\r\n\r\ncontract Contacts {\r\n  address private owner;\r\n  uint public count = 0; // state variable\r\n\r\n  struct Contact {\r\n\t\tuint id;\r\n\t\tstring name;\r\n\t\tstring phone;\r\n\t}\r\n\r\n\tconstructor() public {\r\n\t\towner = msg.sender;\r\n\t\tcreateContact('Reyhaneh', '09163452382');\r\n\t}\r\n\r\n\tmodifier onlyOwner() {\r\n\t\trequire(msg.sender == owner);\r\n\t\t_;\r\n\t}\r\n\r\n\tmapping(uint => Contact) public contacts;\r\n\r\n\tfunction createContact(string memory _name, string memory _phone) public onlyOwner returns(uint){\r\n\t\tbool flag = false;\r\n\t\tfor(uint i=0; i <= count; i++) {\r\n\t\t\tif (keccak256(abi.encodePacked(contacts[i].name)) == keccak256(abi.encodePacked(_name)) &&\r\n\t\t\t\t\t keccak256(abi.encodePacked(contacts[i].phone)) == keccak256(abi.encodePacked(_phone)))\r\n\t\t\t\tflag= true;\r\n\t\t}\r\n\t\tif (!flag) {\r\n\t\t\tcount++;\r\n\t\t\tcontacts[count] = Contact(count, _name, _phone);\r\n\t\t\treturn count;\r\n\t\t}\r\n\t\treturn 0;\r\n\t\t\r\n\t}\r\n\tfunction delContact(uint index) public  onlyOwner{\r\n\t\tif (index <= count) {\r\n       \t\t delete contacts[index];\r\n\t\t}\r\n\r\n\t}\r\n\r\n\tfunction delList() public onlyOwner {\r\n\t\tfor (uint i=1; i<= count;i++) \r\n\t\t\tdelete contacts[i];\r\n\t\tcount=0;\r\n\r\n\t}\r\n\t\r\n\tfunction change_owner(address new_owner,uint gasValue) public onlyOwner {\r\n\t\t// require(condition);\r\n\t\towner = new_owner;\r\n\t}\r\n\r\n\t// function delContact(uint index) public  {\r\n\t// \tif (index >= count) return;\r\n\t// for (uint i = index; i< count; i++){\r\n    //         contacts[i] = contacts[i+1];\r\n    //     }\r\n    //     delete contacts[count];\r\n    //     count = count - 1;\r\n\r\n\t// }\r\n\r\n\t}",
  "sourcePath": "D:\\learning solidity\\Solidity\\truffle\\blockchain\\contracts\\contracts\\Contacts.sol",
  "compiler": {
    "name": "solc",
    "version": "0.8.15+commit.e14f2714.Emscripten.clang"
  },
  "schemaVersion": "3.4.9",
  "updatedAt": "2022-09-19T09:40:40.629Z",
  "networkType": "ethereum",
  "devdoc": {
    "kind": "dev",
    "methods": {},
    "version": 1
  },
  "userdoc": {
    "kind": "user",
    "methods": {},
    "version": 1
  }
}