{
  "contractName": "Contacts",
  "abi": [
    {
      "inputs": [],
      "stateMutability": "nonpayable",
      "type": "constructor"
    },
    {
      "inputs": [
        {
          "internalType": "uint256",
          "name": "",
          "type": "uint256"
        }
      ],
      "name": "contacts",
      "outputs": [
        {
          "internalType": "uint256",
          "name": "id",
          "type": "uint256"
        },
        {
          "internalType": "string",
          "name": "name",
          "type": "string"
        },
        {
          "internalType": "string",
          "name": "phone",
          "type": "string"
        }
      ],
      "stateMutability": "view",
      "type": "function",
      "constant": true
    },
    {
      "inputs": [],
      "name": "count",
      "outputs": [
        {
          "internalType": "uint256",
          "name": "",
          "type": "uint256"
        }
      ],
      "stateMutability": "view",
      "type": "function",
      "constant": true
    },
    {
      "inputs": [
        {
          "internalType": "string",
          "name": "_name",
          "type": "string"
        },
        {
          "internalType": "string",
          "name": "_phone",
          "type": "string"
        }
      ],
      "name": "createContact",
      "outputs": [
        {
          "internalType": "uint256",
          "name": "",
          "type": "uint256"
        }
      ],
      "stateMutability": "nonpayable",
      "type": "function"
    },
    {
      "inputs": [
        {
          "internalType": "uint256",
          "name": "index",
          "type": "uint256"
        }
      ],
      "name": "delContact",
      "outputs": [],
      "stateMutability": "nonpayable",
      "type": "function"
    },
    {
      "inputs": [],
      "name": "delList",
      "outputs": [],
      "stateMutability": "nonpayable",
      "type": "function"
    }
  ],
  "bytecode": "0x6080604052336000806101000a81548173ffffffffffffffffffffffffffffffffffffffff021916908373ffffffffffffffffffffffffffffffffffffffff16021790555060006001553480156200005657600080fd5b50620000d36040518060400160405280600881526020017f52657968616e65680000000000000000000000000000000000000000000000008152506040518060400160405280600b81526020017f3039313633343532333832000000000000000000000000000000000000000000815250620000da60201b60201c565b50620007fc565b60008060009054906101000a900473ffffffffffffffffffffffffffffffffffffffff1673ffffffffffffffffffffffffffffffffffffffff163373ffffffffffffffffffffffffffffffffffffffff16146200013657600080fd5b6000805b60015481116200023e578460405160200162000157919062000369565b60405160208183030381529060405280519060200120600260008381526020019081526020016000206001016040516020016200019591906200048a565b604051602081830303815290604052805190602001201480156200021d575083604051602001620001c7919062000369565b60405160208183030381529060405280519060200120600260008381526020019081526020016000206002016040516020016200020591906200048a565b60405160208183030381529060405280519060200120145b156200022857600191505b80806200023590620004dc565b9150506200013a565b5080620002da57600160008154809291906200025a90620004dc565b91905055506040518060600160405280600154815260200185815260200184815250600260006001548152602001908152602001600020600082015181600001556020820151816001019081620002b2919062000715565b506040820151816002019081620002ca919062000715565b50905050600154915050620002e0565b60009150505b92915050565b600081519050919050565b600081905092915050565b60005b838110156200031c578082015181840152602081019050620002ff565b838111156200032c576000848401525b50505050565b60006200033f82620002e6565b6200034b8185620002f1565b93506200035d818560208601620002fc565b80840191505092915050565b600062000377828462000332565b915081905092915050565b7f4e487b7100000000000000000000000000000000000000000000000000000000600052602260045260246000fd5b60006002820490506001821680620003ca57607f821691505b602082108103620003e057620003df62000382565b5b50919050565b60008190508160005260206000209050919050565b600081546200040a81620003b1565b620004168186620002f1565b945060018216600081146200043457600181146200044a5762000481565b60ff198316865281151582028601935062000481565b6200045585620003e6565b60005b83811015620004795781548189015260018201915060208101905062000458565b838801955050505b50505092915050565b6000620004988284620003fb565b915081905092915050565b7f4e487b7100000000000000000000000000000000000000000000000000000000600052601160045260246000fd5b6000819050919050565b6000620004e982620004d2565b91507fffffffffffffffffffffffffffffffffffffffffffffffffffffffffffffffff82036200051e576200051d620004a3565b5b600182019050919050565b7f4e487b7100000000000000000000000000000000000000000000000000000000600052604160045260246000fd5b60006020601f8301049050919050565b600082821b905092915050565b600060088302620005a77fffffffffffffffffffffffffffffffffffffffffffffffffffffffffffffffff8262000568565b620005b3868362000568565b95508019841693508086168417925050509392505050565b6000819050919050565b6000620005f6620005f0620005ea84620004d2565b620005cb565b620004d2565b9050919050565b6000819050919050565b6200061283620005d5565b6200062a6200062182620005fd565b84845462000575565b825550505050565b600090565b6200064162000632565b6200064e81848462000607565b505050565b5b8181101562000676576200066a60008262000637565b60018101905062000654565b5050565b601f821115620006c5576200068f81620003e6565b6200069a8462000558565b81016020851015620006aa578190505b620006c2620006b98562000558565b83018262000653565b50505b505050565b600082821c905092915050565b6000620006ea60001984600802620006ca565b1980831691505092915050565b6000620007058383620006d7565b9150826002028217905092915050565b6200072082620002e6565b67ffffffffffffffff8111156200073c576200073b62000529565b5b620007488254620003b1565b620007558282856200067a565b600060209050601f8311600181146200078d576000841562000778578287015190505b620007848582620006f7565b865550620007f4565b601f1984166200079d86620003e6565b60005b82811015620007c757848901518255600182019150602085019450602081019050620007a0565b86831015620007e75784890151620007e3601f891682620006d7565b8355505b6001600288020188555050505b505050505050565b610d9f806200080c6000396000f3fe608060405234801561001057600080fd5b50600436106100575760003560e01c806306661abd1461005c5780633dce49201461007a5780639d516f06146100aa578063cc8d4d7a146100c6578063e0f478cb146100d0575b600080fd5b610064610102565b6040516100719190610614565b60405180910390f35b610094600480360381019061008f9190610789565b610108565b6040516100a19190610614565b60405180910390f35b6100c460048036038101906100bf919061082d565b6102fd565b005b6100ce6103a0565b005b6100ea60048036038101906100e5919061082d565b610464565b6040516100f9939291906108e2565b60405180910390f35b60015481565b60008060009054906101000a900473ffffffffffffffffffffffffffffffffffffffff1673ffffffffffffffffffffffffffffffffffffffff163373ffffffffffffffffffffffffffffffffffffffff161461016357600080fd5b6000805b600154811161025d57846040516020016101819190610963565b60405160208183030381529060405280519060200120600260008381526020019081526020016000206001016040516020016101bd9190610a72565b604051602081830303815290604052805190602001201480156102405750836040516020016101ec9190610963565b60405160208183030381529060405280519060200120600260008381526020019081526020016000206002016040516020016102289190610a72565b60405160208183030381529060405280519060200120145b1561024a57600191505b808061025590610ab8565b915050610167565b50806102f1576001600081548092919061027690610ab8565b919050555060405180606001604052806001548152602001858152602001848152506002600060015481526020019081526020016000206000820151816000015560208201518160010190816102cc9190610c97565b5060408201518160020190816102e29190610c97565b509050506001549150506102f7565b60009150505b92915050565b60008054906101000a900473ffffffffffffffffffffffffffffffffffffffff1673ffffffffffffffffffffffffffffffffffffffff163373ffffffffffffffffffffffffffffffffffffffff161461035557600080fd5b600154811161039d576002600082815260200190815260200160002060008082016000905560018201600061038a919061059e565b60028201600061039a919061059e565b50505b50565b60008054906101000a900473ffffffffffffffffffffffffffffffffffffffff1673ffffffffffffffffffffffffffffffffffffffff163373ffffffffffffffffffffffffffffffffffffffff16146103f857600080fd5b6000600190505b60015481116104595760026000828152602001908152602001600020600080820160009055600182016000610434919061059e565b600282016000610444919061059e565b5050808061045190610ab8565b9150506103ff565b506000600181905550565b600260205280600052604060002060009150905080600001549080600101805461048d906109a9565b80601f01602080910402602001604051908101604052809291908181526020018280546104b9906109a9565b80156105065780601f106104db57610100808354040283529160200191610506565b820191906000526020600020905b8154815290600101906020018083116104e957829003601f168201915b50505050509080600201805461051b906109a9565b80601f0160208091040260200160405190810160405280929190818152602001828054610547906109a9565b80156105945780601f1061056957610100808354040283529160200191610594565b820191906000526020600020905b81548152906001019060200180831161057757829003601f168201915b5050505050905083565b5080546105aa906109a9565b6000825580601f106105bc57506105db565b601f0160209004906000526020600020908101906105da91906105de565b5b50565b5b808211156105f75760008160009055506001016105df565b5090565b6000819050919050565b61060e816105fb565b82525050565b60006020820190506106296000830184610605565b92915050565b6000604051905090565b600080fd5b600080fd5b600080fd5b600080fd5b6000601f19601f8301169050919050565b7f4e487b7100000000000000000000000000000000000000000000000000000000600052604160045260246000fd5b6106968261064d565b810181811067ffffffffffffffff821117156106b5576106b461065e565b5b80604052505050565b60006106c861062f565b90506106d4828261068d565b919050565b600067ffffffffffffffff8211156106f4576106f361065e565b5b6106fd8261064d565b9050602081019050919050565b82818337600083830152505050565b600061072c610727846106d9565b6106be565b90508281526020810184848401111561074857610747610648565b5b61075384828561070a565b509392505050565b600082601f8301126107705761076f610643565b5b8135610780848260208601610719565b91505092915050565b600080604083850312156107a05761079f610639565b5b600083013567ffffffffffffffff8111156107be576107bd61063e565b5b6107ca8582860161075b565b925050602083013567ffffffffffffffff8111156107eb576107ea61063e565b5b6107f78582860161075b565b9150509250929050565b61080a816105fb565b811461081557600080fd5b50565b60008135905061082781610801565b92915050565b60006020828403121561084357610842610639565b5b600061085184828501610818565b91505092915050565b600081519050919050565b600082825260208201905092915050565b60005b83811015610894578082015181840152602081019050610879565b838111156108a3576000848401525b50505050565b60006108b48261085a565b6108be8185610865565b93506108ce818560208601610876565b6108d78161064d565b840191505092915050565b60006060820190506108f76000830186610605565b818103602083015261090981856108a9565b9050818103604083015261091d81846108a9565b9050949350505050565b600081905092915050565b600061093d8261085a565b6109478185610927565b9350610957818560208601610876565b80840191505092915050565b600061096f8284610932565b915081905092915050565b7f4e487b7100000000000000000000000000000000000000000000000000000000600052602260045260246000fd5b600060028204905060018216806109c157607f821691505b6020821081036109d4576109d361097a565b5b50919050565b60008190508160005260206000209050919050565b600081546109fc816109a9565b610a068186610927565b94506001821660008114610a215760018114610a3657610a69565b60ff1983168652811515820286019350610a69565b610a3f856109da565b60005b83811015610a6157815481890152600182019150602081019050610a42565b838801955050505b50505092915050565b6000610a7e82846109ef565b915081905092915050565b7f4e487b7100000000000000000000000000000000000000000000000000000000600052601160045260246000fd5b6000610ac3826105fb565b91507fffffffffffffffffffffffffffffffffffffffffffffffffffffffffffffffff8203610af557610af4610a89565b5b600182019050919050565b60006020601f8301049050919050565b600082821b905092915050565b600060088302610b4d7fffffffffffffffffffffffffffffffffffffffffffffffffffffffffffffffff82610b10565b610b578683610b10565b95508019841693508086168417925050509392505050565b6000819050919050565b6000610b94610b8f610b8a846105fb565b610b6f565b6105fb565b9050919050565b6000819050919050565b610bae83610b79565b610bc2610bba82610b9b565b848454610b1d565b825550505050565b600090565b610bd7610bca565b610be2818484610ba5565b505050565b5b81811015610c0657610bfb600082610bcf565b600181019050610be8565b5050565b601f821115610c4b57610c1c816109da565b610c2584610b00565b81016020851015610c34578190505b610c48610c4085610b00565b830182610be7565b50505b505050565b600082821c905092915050565b6000610c6e60001984600802610c50565b1980831691505092915050565b6000610c878383610c5d565b9150826002028217905092915050565b610ca08261085a565b67ffffffffffffffff811115610cb957610cb861065e565b5b610cc382546109a9565b610cce828285610c0a565b600060209050601f831160018114610d015760008415610cef578287015190505b610cf98582610c7b565b865550610d61565b601f198416610d0f866109da565b60005b82811015610d3757848901518255600182019150602085019450602081019050610d12565b86831015610d545784890151610d50601f891682610c5d565b8355505b6001600288020188555050505b50505050505056fea26469706673582212209fd1b018d35bcc87f07634f678b48476f3f5dc66a52f05fa121fceeb53ced22464736f6c634300080f0033",
  "immutableReferences": {},
  "source": "// SPDX-License-Identifier: MIT\r\n\r\npragma solidity >=0.4.22 <0.9.0;\r\n\r\ncontract Contacts {\r\n  address owner= msg.sender;\r\n  uint public count = 0; // state variable\r\n\r\n  struct Contact {\r\n\t\tuint id;\r\n\t\tstring name;\r\n\t\tstring phone;\r\n\t}\r\n\r\n\tconstructor() public {\r\n\t\tcreateContact('Reyhaneh', '09163452382');\r\n\t}\r\n\r\n\tmodifier onlyOwner() {\r\n\t\trequire(msg.sender == owner);\r\n\t\t_;\r\n\t}\r\n\r\n\tmapping(uint => Contact) public contacts;\r\n\r\n\tfunction createContact(string memory _name, string memory _phone) public onlyOwner returns(uint){\r\n\t\tbool flag = false;\r\n\t\tfor(uint i=0; i <= count; i++) {\r\n\t\t\tif (keccak256(abi.encodePacked(contacts[i].name)) == keccak256(abi.encodePacked(_name)) &&\r\n\t\t\t\t\t keccak256(abi.encodePacked(contacts[i].phone)) == keccak256(abi.encodePacked(_phone)))\r\n\t\t\t\tflag= true;\r\n\t\t}\r\n\t\tif (!flag) {\r\n\t\t\tcount++;\r\n\t\t\tcontacts[count] = Contact(count, _name, _phone);\r\n\t\t\treturn count;\r\n\t\t}\r\n\t\treturn 0;\r\n\t\t\r\n\t}\r\n\tfunction delContact(uint index) public  onlyOwner{\r\n\t\tif (index <= count) {\r\n       \t\t delete contacts[index];\r\n\t\t}\r\n\r\n\t}\r\n\r\n\tfunction delList() public onlyOwner {\r\n\t\tfor (uint i=1; i<= count;i++) \r\n\t\t\tdelete contacts[i];\r\n\t\tcount=0;\r\n\r\n\t}\r\n\r\n\t// function delContact(uint index) public  {\r\n\t// \tif (index >= count) return;\r\n\t// for (uint i = index; i< count; i++){\r\n    //         contacts[i] = contacts[i+1];\r\n    //     }\r\n    //     delete contacts[count];\r\n    //     count = count - 1;\r\n\r\n\t// }\r\n\r\n\t}",
  "sourcePath": "D:\\learning solidity\\Solidity\\truffle\\blockchain\\contracts\\contracts\\Contacts.sol",
  "compiler": {
    "name": "solc",
    "version": "0.8.15+commit.e14f2714.Emscripten.clang"
  },
  "schemaVersion": "3.4.9",
  "updatedAt": "2022-08-28T04:46:43.893Z",
  "networkType": "ethereum",
  "devdoc": {
    "kind": "dev",
    "methods": {},
    "version": 1
  },
  "userdoc": {
    "kind": "user",
    "methods": {},
    "version": 1
  }
}